:020000040800F2
:10000000A02D002081020008B1970008A10300087C
:100010001997000861120008C5BB00080000000025
:100020000000000000000000000000009302000833
:10003000E71D000800000000EF02000865AA0008A4
:100040009B0200089B0200089B0200089B0200081C
:100050009B0200089B0200089B0200089B0200080C
:100060009B0200089B0200089B0200082D1C000850
:100070003D1C00084D1C00085D1C00086D1C00089C
:100080007D1C00088D1C00089B0200089B020008D4
:10009000651200089B0200089B0200089B020008F2
:1000A0009B0200089B0200089B0200089B020008BC
:1000B0009B0200089B0200089B0200089B020008AC
:1000C0009B0200089B0200089B0200089B0200089C
:1000D0009B0200083DBB00084DBB000889BB00081F
:1000E0009B0200089B0200089B0200089B0200087C
:1000F0009B0200089B0200089B0200089D1C000850
:100100009B0200089B0200089B0200089B0200085B
:1001100095B30008D1B300089B0200089B020008B9
:10012000AD1C00089B020008BD1C00089B020008D3
:100130009B0200089B0200089B0200089B0200082B
:10014000751200089B0200089B0200089B02000831
:100150009B0200089B020008CD1C00089B020008BF
:100160009B0200089B0200089B0200089B020008FB
:100170009B0200089B0200089B0200080000000090
:100180009B0200089B02000800F002F800F069F8EA
:100190000AA090E8000C82448344AAF10107DA45E2
:1001A00001D100F05EF8AFF2090EBAE80F0013F0CB
:1001B000010F18BFFB1A43F0010318476048010004
:1001C000804801000A444FF0000C10F8013B13F086
:1001D000070408BF10F8014B1D1108BF10F8015BA0
:1001E000641E05D010F8016B641E01F8016BF9D193
:1001F00013F0080F1EBF10F8014BAD1C0C1B09D1EA
:100200006D1E58BF01F801CBFAD505E014F8016B5B
:1002100001F8016B6D1EF9D59142D6D370470000ED
:100220000023002400250026103A28BF78C1FBD8FF
:10023000520728BF30C148BF0B6070471FB512F08E
:10024000DAFE9DE8030000F057FB00F071FC0400AB
:100250000020002112F03EF9401C60601FBD10B567
:1002600010BD00F040FC1146FFF7E8FF00F00FFD65
:1002700000F070FC03B4FFF7F2FF03BC00F0A0FC39
:100280000948804709480047FEE7FEE7FEE7FEE72A
:10029000FEE7FEE7FEE7FEE7FEE7FEE70448054966
:1002A000054A064B70470000FDAB000889010008B5
:1002B000A0270020A02D0020A0290020A029002098
:1002C000EFF3108072B6704780F310887047424A8F
:1002D0001368012B04D04FF0010313603F4A1060F4
:1002E0003F4A11603F484FF0805101607047EFF383
:1002F000108272B63848016851B34FF000010160B6
:100300003648016891B1EFF309811EF0100F08BF64
:1003100021ED108B21E9F00F4FF000041EF0100FBB
:1003200008BF012441F8044D006801602C490968A8
:10033000096808C9B1E8F00F002B18BFB1EC108BA9
:1003400081F309884EF0100E002B18BF2EF0100E0E
:1003500082F310884EF0040E704721490860EFF3D5
:10036000148222F0040282F314881C494FF000002A
:10037000086019494FF0010008601B481B49D0F87C
:10038000002041EA0201016016484FF080510160EF
:1003900017480068006880F3088861B662B6704745
:1003A0001EF0040F0CBFEFF30880EFF3098020E983
:1003B000F00F40F804ED40F804ED1EF0040F0CBF00
:1003C00080F3088880F3098800B510F09DF95DF886
:1003D00004EB4EF0040E7047D0020020C80200204B
:1003E000CC02002004ED00E020ED00E00000FFFF63
:1003F00008ED00E070B5064600F05EFA056806F10B
:100400000B0020F00704B4429CBF002070BD2B46B7
:100410006A68BAB11068A04210D304F1080188429A
:100420003CBF5068586007D351681019416011688B
:10043000091B016058601460101D70BD134652689E
:10044000002AE7D12146284600F042FA0028DED1F2
:1004500070BD70B50446051F00F02EFA0068002C30
:1004600014BF446870BD002C18BFAC423CBF20468E
:100470006468F8D301680A18AA4218BF456003D11E
:100480002A6805461144016028684119A1421CBF31
:100490006C6070BD6168696021680844286070BD47
:1004A00053EA020C00F069802DE9F04B4FF0000692
:1004B000002B1FBFB3FA83F503FA05F424FA05F6FF
:1004C0005E4012BF1643B2FA82F502FA05F4C5F196
:1004D00020051EBF22FA05FC44EA0C04203556EA2A
:1004E000044C4FEA144418BF641C4FF000084FF04E
:1004F0000009904271EB030C39D3002919BFB1FAFE
:1005000081F701FA07F6B0FA80F700FA07F6C7F1AB
:1005100020071EBF20FA07FC46EA0C062037B6FB70
:10052000F4FCA7EB0507103F07F01F0BCBF12006EB
:100530000CFA0BFB2CFA06F644BFB3460026202F1C
:10054000A4BF5E464FF0000B5BEA060C08BF4FF0FD
:10055000010B19EB0B09ABFB027C48EB0608C01B37
:1005600006FB02CC0BFB03CC71EB0C01C1E70B4685
:10057000024641464846BDE8F08B13B54FF00000F7
:100580004FF00001AFF30080BDE81C40704770B52C
:10059000064600F095F90468054630460A22002117
:1005A00000F0EBF92C6070BD40EA0103024630B563
:1005B0009B0710D14FF0013400E008C208C91D1B91
:1005C0009D4315EAC41FF8D013F0FF0102F8011B88
:1005D0000DD01B0AF8E711F8013B002B02F8013B94
:1005E00005D011F8013B002B02F8013BF3D130BDDF
:1005F00010B5431C02E010F8011B71B18107FAD15C
:100600004FF0013202C88C1A8C4314EAC211F9D09F
:10061000C01A0A0603D0C01E10BDC01A10BD0A04BD
:1006200001D0801E10BD0902FCD0401E10BD40EA62
:10063000010370B59B072ED14FF00136042A2AD34F
:1006400008C810C99D1B9D43121F15EAC61517D077
:10065000D8B2E1B2401A50EA056110D198B2A1B205
:10066000401A50EA05410AD123F07F4024F07F412F
:10067000401A50EA052102D1180EA0EB146070BD9B
:10068000A342DBD018BA21BA884201D9012070BD3B
:100690004FF0FF3070BD0AB9002070BD10F8013B6B
:1006A00011F8014B63B1A3420AD1521E08D010F8D1
:1006B000013B11F8014B1BB1A34201D1521EEDD1F8
:1006C000181B70BD421E12F8013F002BFBD111F820
:1006D000013B002B02F8013BF9D17047032A40F29D
:1006E000308010F0030C00F0158011F8013BBCF1D4
:1006F000020F624498BF11F801CB00F8013B38BFEC
:1007000011F8013BA2F1040298BF00F801CB38BFF9
:1007100000F8013B11F0030300F02580083AC0F017
:10072000088051F8043B083A51F804CBA0E80810BF
:10073000F5E7121D5CBF51F8043B40F8043BAFF3F2
:100740000080D20724BF11F8013B11F801CB48BF4C
:1007500011F8012B24BF00F8013B00F801CB48BF82
:1007600000F8012B704710B5203AC0F00B80B1E8BB
:100770001850203AA0E81850B1E81850A0E81850D6
:10078000BFF4F5AF5FEA027C24BFB1E81850A0E8DF
:10079000185044BF18C918C0BDE810405FEA827CF9
:1007A00024BF51F8043B40F8043B08BF7047D20710
:1007B00028BF31F8023B48BF11F8012B28BF20F8B1
:1007C000023B48BF00F8012B70474FF0000204299C
:1007D000C0F0128010F0030C00F01B80CCF1040C70
:1007E000BCF1020F18BF00F8012BA8BF20F8022BA4
:1007F000A1EB0C0100F00DB85FEAC17C24BF00F84A
:10080000012B00F8012B48BF00F8012B70474FF077
:10081000000200B5134694469646203922BFA0E850
:100820000C50A0E80C50B1F12001BFF4F7AF09075C
:1008300028BFA0E80C5048BF0CC05DF804EB89004D
:1008400028BF40F8042B08BF704748BF20F8022B90
:1008500011F0804F18BF00F8012B704710B5044607
:1008600010F0030F08BF11F0030F40F015804FF098
:10087000013E121FC0F20E8051F8043BA3EB0E0C98
:100880002CEA030C1CEACE1C08BF40F8043BF0D055
:10089000A1F1040102F10402521E08DB11F8013B30
:1008A000002B00F8013BF7D11146FFF78EFF2046E1
:1008B00010BD7047704770470048704744270020BC
:1008C000004870473C2700207047704770477047CA
:1008D00038B504460A4600206946AFF30080002878
:1008E00008BF38BD02460099204600F08BF8012071
:1008F00038BD012000F0EFB8F8B5AFF30080054631
:1009000000200C46102000BF0646A819A0420DD9B1
:10091000324669460020AFF30080070008BF00F0B0
:10092000DAF80098A04218BF0546C419FFF7C4FFC3
:1009300005600746F01D20F007004619284600F024
:100940000AF8B44208BFF8BDA21B31463868BDE8BA
:10095000F84000F057B800210160C0E9011070476D
:100960001020704710B5FFF7ABFF006810BD10B541
:100970000446FFF7A5FF046010BD2DE9F04791463E
:100980000F4680460446002614F8015B2DB100F0A6
:1009900031F80068405DC007F6D12B2D02D02D2D17
:1009A00018D0641E4A463946204600F045F827B163
:1009B0003968A14201D1C7F800804FF002047105E7
:1009C0000BD54042002803DDFFF77AFF0460A00743
:1009D000BDE8F08746F48066E4E70028F8DAFFF720
:1009E0006FFF04606FF00040F2E7000000487047BE
:1009F0003C27002010B500F09BF8001D10BD00BF83
:100A0000D51A0100034640688C46002818BF88426A
:100A10003CBF03464068F8D318681844884207D0A2
:100A20000CF1030020F00700001D411A521A014684
:100A3000081D0A60FFF70DBD2DE9F05F82461546DF
:100A40008B4600270AF10104B9460078302801D00E
:100A50009DB113E014F8010B0127782803D0582822
:100A600001D045B10AE00DB1102D07D1002714F8CF
:100A7000010B102502E0082500E00A250026B046FB
:100A80000EE005FB080005FB06F101271FFA80F8C0
:100A900001EB1046B6F5803F00D3B94614F8010BC0
:100AA000294600F049F80028EBDABBF1000F05D029
:100AB0000FB1641E00E05446CBF80040B9F1000FBE
:100AC00006D0FFF7FDFE02210160C81EBDE8F09FC1
:100AD00048EA0640FAE710B500F04AF8BDE81040D1
:100AE00000F041B870477546FFF780FFAE4605003D
:100AF0006946534620F00700854618B020B5FFF739
:100B0000CDFBBDE820404FF000064FF000074FF04E
:100B100000084FF0000B21F00701AC46ACE8C0091B
:100B2000ACE8C009ACE8C009ACE8C0098D46704724
:100B3000004870475C2700203A2800D2303820F067
:100B40002002412A01D3A2F13700884201D34FF09D
:100B5000FF30704710B50446AFF300802046BDE873
:100B60001040FFF787BB002801D000F029B870477C
:100B700010B5012805D0002103A000F027F80120BE
:100B800010BD09A1F8E7000053494752544D454DA7
:100B90003A204F7574206F662068656170206D651E
:100BA0006D6F7279000000003A2048656170206D19
:100BB000656D6F727920636F727275707465640011
:100BC00001491820ABBEFEE72600020070B50546BD
:100BD0000C460A2000E06D1C00F052F835B1287870
:100BE0000028F8D102E0641C00F04AF814B1207823
:100BF0000028F8D1BDE870400A2000F041B800009C
:100C00004FF0013C50F8042B51F8043B9A4221D19B
:100C1000A2EB0C03934313EACC1317D150F8042B27
:100C200051F8043B9A4215D1A2EB0C03934313EA0B
:100C3000CC130BD150F8042B51F8043B9A4209D144
:100C4000A2EB0C03934313EACC13DBD04FF000006C
:100C5000704700BFD01A01BAB1FA81F101F0180152
:100C600022FA01F0CB40C1F12001DBB2C0B2C01AC0
:100C70002CFA01F3D11A914311EAC311E6D170475E
:100C800008B569468DF800000320ABBE08BD10B55D
:100C900011F036F8002010BD70B50546AC6B206C25
:100CA00000F0500050BB206C40F4007020642068BD
:100CB000806800F04050E8B9207ED8B92068C06A4A
:100CC00000F4700020B12068806800F4806088B96A
:100CD0002068406820F0200021684860206C20F4E3
:100CE00080702064206C00F4805018B9206C40F0B3
:100CF00001002064204602F037F90BE0206C00F080
:100D0000100018B1204602F06CF903E0A06BC16C32
:100D10002846884770BD70B50546AC6B40202064FE
:100D2000606C40F004006064204602F05AF970BD27
:100D300070B50446A56B284602F052F970BD00005C
:100D400055494A6822F440324A604A6843681A4367
:100D50004A600268526822F4807203685A6002682E
:100D60005368026943EA022203685A6002685268C3
:100D700022F0407203685A600268526883681A431E
:100D800003685A600268926822F4006203689A60FD
:100D900002689268C3681A4303689A603F4B826A8C
:100DA0009A4218D00268926822F0706203689A60D2
:100DB00002689268836A1A4303689A6002689268BC
:100DC00022F0405203689A6002689268C36A1A432C
:100DD00003689A600BE00268926822F07062036810
:100DE0009A600268926822F0405203689A60026832
:100DF000926822F0020203689A6002689368027E99
:100E000043EA420203689A602022125CA2B102689F
:100E1000526842F4006203685A600268526822F421
:100E2000604203685A6002685368426A521E43EA8D
:100E3000423203685A6005E00268526822F4006298
:100E400003685A600268D26A22F470020368DA62A8
:100E50000268D36A828B521E43EA02520368DA6246
:100E60000268926822F4007203689A6002689368CC
:100E700090F8302043EA422203689A600268926840
:100E800022F4806203689A6002689368426943EAC8
:100E9000822203689A607047002301400100000F1E
:100EA00070B5002408E03A4951F82400B0F1FF3F42
:100EB00000D009E0601C84B236490889C11700EBF4
:100EC0009171B4EBA10FEEDB00BF32490889C11765
:100ED00000EB9171B4EBA10F18DB2F482D490A6884
:100EE00002604A684260896881600089801E81B220
:100EF000294800F053FD2849488108460589E8172C
:100F000005EB90708210224811F074F822492048B5
:100F100002680A6042684A60806888600846008902
:100F2000801E81B21C4800F039FD04461A48007842
:100F30005A2807D118484078A52803D11648408977
:100F4000A04218D0144813490A6802604A684260F7
:100F5000896881600089801E81B20F4800F01EFD03
:100F60000D49488108460589E81705EB9070821005
:100F7000074811F03FF8084880880849088006486B
:100F80004088488040F2DC508880002070BD00001E
:100F900000000208344301087C1C002008010020E6
:100FA00070B500251648007801281FD1002014498B
:100FB00008701448008914490881FFF781F9064632
:100FC00011480089801E81B20F4800F0E7FC0E49ED
:100FD000488108460489E01704EB907082100B48A2
:100FE00011F008F83046FFF76FF906E00448007882
:100FF000032802DD002002490870284670BD000069
:1010000004010020344301087C1C00200000020879
:1010100010B507F0B3FD07F035FD07F09FFE07F0B0
:10102000CDFE07F0E7FE07F001FF07F01BFF07F01A
:1010300035FF07F0DBFC07F0FFFC07F06DFE07F063
:101040009DFC00F021F810F0B9FE002010BD00005A
:10105000094890ED000AB8EE400ADFED080A20EEDC
:10106000200ADFED070A80EE201A064880ED001AFC
:1010700090ED000A70470000280000203CBD0241AE
:1010800000007A442C00002010B5002405E0002068
:10109000064941F82400601CC4B2502CF7DB5022F2
:1010A0000249034802F034F810BD0000540F00203C
:1010B000F002002010B507F099FC07F0BDFC10BD50
:1010C00010B505F047F810BD0248406A0249496A68
:1010D0000844704798030020C003002070B50546FF
:1010E0000C46084885420CD124B10122D1030648A0
:1010F00003F050FA2CB900224FF40041024803F0EB
:1011000049FA70BDF40B0020000002402DE9F041C7
:1011100004460F469046D4F89C0090F83D002028E5
:1011200002D00220BDE8F081A4F89080B4F89000CD
:10113000402801DD3D4606E0B4F8902039462046BF
:10114000FFF7CCFA2546D4F89C0004F0F2F901210F
:101150002046FFF7C3FFB4F890202946D4F89C003E
:1011600004F086FF06463EB9903421886068084442
:101170006060903C3046D5E700212046FFF7AEFF87
:101180003046CFE710B50446D4F8A80098B128221D
:1011900004F14001D4F89C0004F0A6FE08B101F06F
:1011A000D1FBD4F89C000068C06840F01000D4F86F
:1011B0009C100968C86000212046FFF78FFF10BD12
:1011C00070B504460E461546B0212046FFF71FFBBA
:1011D0001748844209D117481549C1F89C001648A0
:1011E000C1F8A0001548C1F8A4001548844209D1EF
:1011F00014481349C1F89C001348C1F8A0001348D3
:10120000C1F8A4001248844209D112481049C1F81B
:101210009C001148C1F8A0001048C1F8A400C4F80F
:10122000A860C4F8AC502046FFF7ACFF70BD0000CA
:10123000440B0020540500207C0800201C080020DE
:10124000F40B0020880400203C060020DC05002070
:10125000A40C0020CC040020FC0600209C060020EA
:1012600000BFFEE710B5024802F03CFA10BD0000D6
:101270009803002010B5024802F034FA10BD0000B7
:10128000C00300202DE9F04105460024C2E0C4EB74
:10129000C400634901EB80000069E96888427CD1A1
:1012A0000027C4EBC4005E4901EB8000806970B187
:1012B000E878C4EBC4015A4A02EB81018978B0EBAB
:1012C000111F01D1012000E0002007460BE0C4EB14
:1012D000C400534901EB80008078000918B1A87858
:1012E000022800D10127012F57D1C4EBC4004C497B
:1012F00001EB8000806978B100260AE0281D805D3E
:10130000C4EBC401464A02EB810189698855701C0F
:10131000C6B2E878B042F1DCE86801F055FDC4EBF4
:10132000C4003F4901EB8000406940B9C4EBC400F0
:1013300001EB8000807800F00F00002868D0C4EB3B
:10134000C400374901EB80004088C0F3413020B130
:10135000012812D002285AD12BE0C4EBC400304936
:1013600001EB8000C0882F490988081AC4EBC4012A
:101370002B4A02EB8101088149E0C4EBC4002849F3
:1013800001EB80004088C0F34120022810D1C4EB5B
:10139000C40001EB8000408800E039E020F4C06028
:1013A00000F5C060C4EBC4011D4A02EB8101488016
:1013B0002DE0C4EBC4001A4901EB8000408820F402
:1013C000807000F58070C4EBC401154A02EB810106
:1013D0004880C4EBC400114601EB8000408820F433
:1013E000C06000F50070C4EBC40102EB81014880CD
:1013F000C4EBC400114601EB8000C088094909888C
:10140000081AC4EBC40102EB8101088100BF00BFD0
:10141000601CC4B2502CFFF63AAFBDE8F08100006A
:10142000BC130020F000002010B54FF4FA6003490F
:10143000088004F05FFFFFF743FE10BDF0000020BE
:101440007FB5684600F070FA10B16846FFF71AFFE2
:1014500001F0B8FC0024CBE1C4EBC400FE4901EB71
:1014600080004088C0F3002000287DD0C4EBC40079
:1014700001EB80004088C0F3C120002875D1C4EB87
:10148000C40001EB80004088C0F34120012836D120
:10149000C4EBC401F04A02EB810009F00BFAC4EB83
:1014A000C400ED4901EB80008088C0F3821005285C
:1014B0001CDAC4EBC40001EB80004088C0F341207B
:1014C000012813D1C4EBC40001EB8000808880099F
:1014D000401CC4EBC401E04A02EB8101898860F33F
:1014E0008811C4EBC40002EB80008180DB480088D7
:1014F000C4EBC401D84A02EB810108817BE1C4EB53
:10150000C400D54901EB80004088C0F34120022887
:101510004ED1C4EBC40001EB8000808820F4E07061
:10152000C4EBC401CC4A02EB81018880C4EBC40146
:10153000134603EB8101CA88C4EBC40103EB8101AC
:101540000889C649098809F0CFFE00288DD0C4EB70
:10155000C400C14901EB8000408820F4C06000F560
:101560000070C4EBC40101E021E053E0BA4A02EB91
:1015700081014880C4EBC400114601EB8000007972
:10158000C0F383000A2812DAC4EBC40001EB800028
:1015900000798008401CC4EBC40102EB81018988FA
:1015A00060F38501C4EBC40002EB800081801DE183
:1015B000C4EBC400A84901EB80004088C0F341207F
:1015C0000328F4D1C4EBC40001EB8000808820F430
:1015D000E070C4EBC401A04A02EB81018880C4EB37
:1015E000C400114601EB8000808820F03C00C4EB71
:1015F000C40102EB81018880C4EBC400114601EBF9
:101600008000408820F4C060C4EBC40102EB81017B
:101610004880EBE0C4EBC4008F4901EB80004088B8
:10162000C0F3C1200128C2D1C4EBC4018A4B03EB33
:101630008101CA88C4EBC40103EB81010889874991
:10164000098809F051FEE8B3C4EBC400824901EBFC
:1016500080004088C0F34120012838D1C4EBC40188
:101660007D4A02EB810009F025F9C4EBC4007A49F8
:1016700001EB80008088C0F3821005281CDAC4EBDF
:10168000C40001EB80004088C0F34120012813D141
:10169000C4EBC40001EB800080888009401CC4EBCF
:1016A000C4016D4A02EB8101898860F38811C4EBA3
:1016B000C40002EB8000818068480088C4EBC4014C
:1016C000654A00E003E002EB8101088193E0C4EB8E
:1016D000C400614901EB80004088C0F3412002282A
:1016E0004AD1C4EBC40001EB8000808820F4E07094
:1016F000C4EBC401584A02EB81018880C4EBC401E9
:10170000134603EB8101CA88C4EBC40103EB8101DA
:1017100008895249098809F0E7FD60B3C4EBC400A9
:101720004D4901EB8000408820F4C06000F5007056
:10173000C4EBC401484A02EB81014880C4EBC400F9
:10174000114601EB80000079C0F383000A284DDACE
:10175000C4EBC40001EB800000798008401CC4EB9E
:10176000C40102EB8101898860F38501C4EBC400E8
:1017700002EB8000818039E0C4EBC400364901EB04
:1017800080004088C0F3412003282FD1C4EBC4005F
:1017900001EB8000808820F4E070C4EBC4012E4A85
:1017A00002EB81018880C4EBC400114601EB80008C
:1017B000808820F03C00C4EBC40102EB81018880EA
:1017C00026480088C4EBC40102EB81010881C4EB08
:1017D000C400114601EB8000408820F4C06000F591
:1017E0000070C4EBC40102EB81014880601CC4B2EC
:1017F000502CFFF631AE00BF002500241FE0C4EBE3
:10180000C400154901EB80008088C0F382100528D0
:101810000EDB45F00205C4EBC40001EB80008088BC
:1018200020F4E070C4EBC4010B4A02EB8101888014
:10183000FFF74AFC08B145F00405601CC4B2502C07
:10184000DDDB1DB1FFF736FCFFF73AFC04480078FA
:101850002843034908707FBDBC130020F00000201E
:10186000F20000202DE9F04F87B004460F46904665
:101870009946DDE910ABBAF1080F01DD4FF0080A17
:10188000029401940397CDF81080CDF814A0BBF119
:10189000000F01D1084E00E0084E6B464A4601A9F0
:1018A000304601F024FD054615B1304602F0AEF990
:1018B000284607B0BDE8F08F98030020C003002041
:1018C000014608784A78904201D1012070470020F3
:1018D000FCE70FB470B50446204600F016F818B1C6
:1018E000002070BC5DF814FB6178201D00EB011036
:1018F00005A92EC92EC06078401C142190FBF1F27E
:1019000001FB120060700120EBE701464878401CA3
:10191000142290FBF2F302FB13000A78904201D1EB
:10192000012070470020FCE710B504460C48FFF783
:10193000C7FF08B1002010BD09480178001D00EB69
:1019400001130FCB84E80F0005480078401C1421D8
:1019500090FBF1F201FB1200014908700120EAE757
:10196000000A0020C0EBC0010B4A02EB810149884C
:10197000C1F3C12171B9C0EBC00102EB81014988FB
:1019800021F4C06101F50071C0EBC002024B03EB12
:101990008202518070470000BC13002070B50246DF
:1019A0000C46FF25FF2309E012F8010B80EA050130
:1019B0000648405C80EA03050548435C201EA4F10C
:1019C0000106B4B2F0D143EA052070BD2A3F0108F8
:1019D0002A40010870B502460C46FF25FF2309E0A6
:1019E00012F8010B80EA05010648405C80EA030515
:1019F0000548435C201EA4F10106B4B2F0D143EACD
:101A0000052070BD2A4101082A42010810B52DEDBC
:101A1000028BF0EE408AB0EE608A09480078022816
:101A200005D0022006490870642002F0D7FB054863
:101A3000C0ED048A80ED058ABDEC028B10BD00006C
:101A4000C41F0020F41D002070B52DED048B04464A
:101A50000D46B0EE408AF0EE608AB0EE419AF0EEAC
:101A6000619AB4212046FEF7D2FE2570207810B18D
:101A700001281FD100E01DE0F0EE694AB0EE494AAE
:101A8000F0EE683AB0EE483ADFED0C2A9FED0C2AF2
:101A9000DFED0C1A9FED0B1ADFED0B0A9FED0B0A21
:101AA000204607F017FA0A48C4F8AC000948C4F801
:101AB000B00000BF00BFBDEC048B70BD0080774458
:101AC000AD63EF43000000000040A94300009643CF
:101AD000E9960008998F00082DE9F0412DED048B5F
:101AE00004460D46164694ED230ADFED2D0A80EEDE
:101AF000201A11EE107A384611F00CFA41EC190B4D
:101B0000B0EE490AF0EE690A0AF056FCB0EE408ADF
:101B1000F0EE608A51EC180B10F0FEFCC4F8840063
:101B200094ED230ADFED1E0A80EE201A11EE107AE2
:101B3000384611F0EFF941EC190BB0EE490AF0EE1E
:101B4000690A0AF0C9FBB0EE408AF0EE608A51ECF7
:101B5000180B10F0E1FCC4F8880094ED220AD4EDD3
:101B60001E0A20EE200AD4ED210A94ED1F1A00EE81
:101B7000810A86ED000A94ED210AB1EE400AD4ED07
:101B80001E0A20EE200AD4ED220A94ED1F1A00EE60
:101B9000810A85ED000ABDEC048BBDE8F0810000F0
:101BA000E12E654210B51C4800681C4988421AD1D4
:101BB0001B48B0F900101B4808F0B9FB1848B0F9F1
:101BC00002101848303008F0B2FB1548B0F9041084
:101BD0001448603008F0ABFB1148B0F9061011480A
:101BE000903008F0A4FB0F4808F098FB0E490880DD
:101BF0000C48303008F092FB0B49488009486030AF
:101C000008F08CFB084988800648903008F086FB75
:101C10000549C88010BD0000A0010020A9220008CD
:101C200058010020881C00206801002010B50248DF
:101C300002F0F4F810BD00009C06002010B5024828
:101C400002F0ECF810BD0000DC08002010B50248DE
:101C500002F0E4F810BD0000DC05002010B50248D9
:101C600002F0DCF810BD00003C09002010B502486D
:101C700002F0D4F810BD00003C06002010B5024868
:101C800002F0CCF810BD00001C08002010B502487E
:101C900002F0C4F810BD00007C08002010B5024816
:101CA00002F0BCF810BD0000FC06002010B5024890
:101CB00002F0B4F810BD00003803002010B502484F
:101CC00002F0ACF810BD00005C07002010B502481F
:101CD00002F0A4F810BD0000BC07002001460878FF
:101CE00010381823B0FBF3F20848805CC865032A5B
:101CF00005D908686FF30900001D886503E00868CE
:101D00006FF309008865886D704700000A3001088C
:101D1000014600208A6A8B69CBB932B1012A0DD005
:101D2000022A03D0032A10D10EE000BFCB6A03F0D1
:101D30008073B3F1807F00D1012007E0CB6AB3F15B
:101D4000C07F00D1012001E000E000BF34E08B69DA
:101D5000B3F5005F1AD132B1012A07D0022A03D0AD
:101D6000032A11D10AE000BF01200EE0CB6A03F084
:101D70008073B3F1807F00D1012006E0CB6AB3F11C
:101D8000C07F00D1012000E000BF15E032B1012A80
:101D900005D0022A04D0032A0CD103E000BF00BF03
:101DA000012008E0CB6A03F08073B3F1807F00D19B
:101DB000012000E000BF00BF704730B50468246810
:101DC00024F4802405682C60046863608468402CD7
:101DD00004D10468A2600468E16003E00468A160C3
:101DE0000468E26030BD704770B50446324D2D681E
:101DF000324EB54210D1324D2D78042D02DB032531
:101E00002F4E35702F4D2E4E367805EB46004FF491
:101E1000FA425342142117E0274D2D682A4EB5424D
:101E200012D1274D2D780DB9284808E0244D2D7882
:101E3000012D02D12548801C01E02448001D40F6F8
:101E4000C4124FF4FA730A21D4B91B4D2D681B4EEE
:101E5000B54204D0184D2D681B4EB5422BD1B0F9B8
:101E60000050561AB54204DC05880D442DB2058099
:101E700021E0B0F9005095421DDA15B205801AE054
:101E8000012C18D10C4D2D680C4EB54204D00A4DD2
:101E90002D680D4EB5420ED1B0F900505E18B54216
:101EA00004DB05886D1A2DB2058004E0B0F90050FE
:101EB0009D4200DD038070BDA0010020A922000822
:101EC0009D01002058010020E52400087E1C002010
:101ED00010B50348006810B101480068804710BD84
:101EE000A001002000200749087007490870FF2062
:101EF000064908700020064908700648006806492F
:101F0000086070479C0100209D0100209E01002078
:101F10009F01002040430108A001002010B5164891
:101F20000068164988421DD11548007830B1012853
:101F300008D002280BD0032813D10DE0114808F077
:101F40001DFA0EE00F48143008F018FA09E00D48A9
:101F5000283008F013FA04E00A483C3008F00EFA82
:101F600000BF07E0044800680749884202D1012009
:101F70000649087010BD0000A00100205527000888
:101F80009D010020481D0020E524000804010020D8
:101F900001461D4A12681D4B9A4201D103200CE0F4
:101FA000194A12681A4B9A4201D1032005E0164AD9
:101FB0001268184B9A4200D10220134A1268144B3F
:101FC0009A4209D0104A1268104B9A4204D00E4A25
:101FD0001268104B9A4215D149B90F4A12788242C1
:101FE00005DA0D4A1278521C0B4B1A700AE00129CF
:101FF00008D1094A1278002A04DD074A1278521ED5
:10200000054B1A7070470000A001002055270008FA
:10201000A9220008E52400089D0100200249096862
:102020000144014A11607047A4010020154A12784A
:10203000012A26D1144A1278144B1B789A4220D1D7
:10204000012150B9124A1278062A06DA0021104AF4
:102050001278521C0E4B1A700BE0012809D10C4A61
:102060001278012A05DD0021094A1278521E084B18
:102070001A7031B90022034B1A70064A1268064BD7
:102080001A6070479F0100209E0100209D010020E2
:102090009C01002040430108A001002010B55248D7
:1020A000007800287BD11F200BF0B8FB00204F499F
:1020B0000870FF204E4908704E48007810B9012082
:1020C0004C4908704C484B49097850F821004B495D
:1020D0000860084600684A4988420CD14FF0FF303A
:1020E0004849088048808880C880474908804880DF
:1020F0008880C88074E0414800684449884206D11D
:102100005A204349087048708870C87068E03B489E
:1021100000684049884230D13FA30C220A211A208E
:102120000BF077FD3FA30C221A212A200BF071FD42
:102130003EA30C22422102200BF06BFD3DA30C229A
:10214000422108460BF065FD3CA30C225A210220D7
:102150000BF05FFD3BA30C225A2142200BF059FDEE
:102160003A48006864383A4908604FF6FF703949C8
:10217000088048808880C88032E02048006836495E
:10218000884220D135A30C22052128200BF041FDE7
:1021900034A30C22152102200BF03BFD00E022E0CD
:1021A00034A30C22252102200BF033FD35A30C2291
:1021B000352102200BF02DFD4FF6FF7035490880C8
:1021C000488088800CE00D4800683349884207D178
:1021D0004FF6FF7031490880314908803149088045
:1021E00001200149087010BD9F0100209D010020C1
:1021F0009E0100209C01002040430108A001002016
:10220000A922000860010020700100205527000865
:102210008001002091280008556C747261736F6E04
:10222000696300005369676E616C0000444154416A
:10223000313A000044415441323A00004441544193
:10224000333A000044415441343A0000A4010020D4
:10225000A801002084010020192400084D505536A3
:1022600030353000526F6C6C203A202020202E2018
:102270004300000050697463683A202020202E201B
:102280004300000059617720203A202020202E2092
:102290004300000090010020E52400089601002082
:1022A000980100209A0100202DE9FC415348007854
:1022B00053490978884252D0514800784F490870F4
:1022C00000244AE04D480078A04212D11F214FF669
:1022D000FF700BF00FFBC4EBC4004A4A02EB400353
:1022E00004EB84008000811C0C2202200BF091FC86
:1022F00011E04FF6FF711F200BF0FCFAC4EBC40095
:10230000404A02EB400304EB84008000811C0C2255
:1023100002200BF07EFC4FF6FF711F200BF0EAFA53
:1023200004EBD4725210121D02EB82029200921C36
:1023300091B2254604EBD5725210A4EB42029201F1
:10234000921C90B2221DC2EBC2022E4F07EB420339
:102350000C220BF05EFC601CC4B2042CB2DB002427
:1023600048E0294830F91400284931F9141088420E
:1023700014D0264830F81400234921F81400002016
:102380000421CDE90010214830F9143004EB840019
:102390008000811C0C2256200BF010FC1C4830F9E8
:1023A00014001C4931F91410884221D0194830F822
:1023B0001400174921F814000020042104EBD47202
:1023C0005210121D02EB82029200921CCDE9001005
:1023D00091B2254604EBD5725210A4EB4202920151
:1023E000283290B20B4A32F914300C220BF0E6FB83
:1023F000601CC4B2042CB4DBBDE8FC819E0100204B
:102400009D0100205C43010860010020580100206C
:10241000700100206801002070B52DED028B82B0A4
:102420002B4800782B490978884203D02948007846
:1024300027490870002445E0274830F81410274841
:1024400030F9140081423BD0244830F8140022496E
:1024500021F81400084630F81400B421484300EE77
:10246000100AB8EEC00ADFED1E0A80EE208AB2EE36
:10247000040A28EE000ABCEEC00A10EE100A85B26B
:102480000A2095FBF0F600200321CDE90010200181
:1024900000F1150133460C222A200BF043FB0A20E1
:1024A00095FBF0F100FB115600200121CDE9001051
:1024B000200100F1150133460C2241200BF032FBC4
:1024C000601CC4B2032CB7DB02B0BDEC028B70BD44
:1024D0009E0100209D01002090010020C21D0020CF
:1024E000000000471CB549480078494909788842EE
:1024F0003BD04748007845490870002433E0434802
:102500000078A04214D11F214FF6FF700BF0F2F9B2
:1025100004F10C00C0EBC0003E4A02EB400304EBA8
:1025200084008000811C0C2202200BF072FB13E05F
:102530004FF6FF711F200BF0DDF904F10C00C0EB2A
:10254000C000344A02EB400304EB84008000811C8D
:102550000C2202200BF05DFB4FF6FF711F200BF0E9
:10256000C9F9601CC4B2032CC9DB2B4840882B4935
:102570000988884212D028484088284908800020CD
:102580000421CDE90010254803880C2202215620A1
:102590000BF0C8FA21480088214948801E488088ED
:1025A0002049098888420ED01B4880881D49088030
:1025B00000200421CDE900101A4803880C221621BE
:1025C00056200BF0AFFA1448C08817490988884292
:1025D0000ED01148C0881449088000200421CDE99C
:1025E0000010114803880C222A2156200BF09AFA79
:1025F00006480078022804D10B4800880849088062
:1026000003E008480088064908801CBD9E010020A0
:102610009D0100205C4301087C1C002096010020E5
:1026200008010020980100209A0100201CB54548AF
:10263000007845490978884206D0434800784149E6
:10264000087000204149088040480088401C3F49EC
:1026500008800846008801280CD100200821CDE917
:1026600000103B48B0F900300C22022114200BF07E
:10267000A5FA65E03548008807280CD1002008211C
:10268000CDE900103248B0F902300C22122114209A
:102690000BF094FA54E02D4800880E280CD100204D
:1026A0000821CDE900102A48B0F904300C2222217B
:1026B00014200BF083FA43E02448008815280CD13D
:1026C00000200821CDE900102148B0F906300C2285
:1026D000322114200BF072FA32E01C4800881C28CA
:1026E0001AD107F0FDFB04460020082123460C22E6
:1026F000CDE90010422114200BF060FA07F0FAFB3C
:1027000004460020082123460C22CDE90010522166
:1027100014200BF053FA13E00C48008823280FD143
:1027200007F0A8FB04460020082123460C22CDE92F
:102730000010622114200BF041FA002003490880A8
:102740001CBD00009E0100209D010020AC01002066
:102750006801002038B54648007846490978884223
:1027600036D0444800784249087000242EE04048A2
:102770000078A04214D11F214FF6FF700BF0BAF879
:1027800004F10800C0EBC0003B4A02EB4003C4EB7D
:1027900004104000811C0C2202200BF03AFA13E0D6
:1027A0004FF6FF711F200BF0A5F804F10800C0EBF5
:1027B000C000314A02EB4003C4EB04104000811C0E
:1027C0000C2202200BF025FA601CC4B2042CCEDBD4
:1027D00000244AE02948005D2949095D884203D167
:1027E0002848005D02283ED12648005D022805D118
:1027F0004FF478411F200BF07DF804E04FF4FC61AA
:102800001F200BF077F81D48005D1D490855002575
:1028100022E01B48005D284100F0010068B1002063
:10282000C4EB0412520002F110012A010090901C26
:10283000102315A203F0CBFE0CE00020C4EB041221
:10284000520002F110012A010090901C10230FA2E7
:1028500003F0BDFE681CC5B2082DDADB4FF6FF7130
:102860001F200BF047F8601CC4B2042CB2DB38BD4B
:102870009E0100209D0100205C4301087C01002096
:102880008001002078010020A1F10000A1F00000EB
:102890002DE9FC412548007825490978884203D074
:1028A00023480078214908706422224801682248A0
:1028B000006808F0EFFCB8B3002433E021461F485D
:1028C00007F076FE05461E4830F81410A94227D0BE
:1028D00020F8145000200421264604EBD672521032
:1028E00002EB42020832D200921CCDE9001091B2F4
:1028F000274604EBD7725210A4EB420202EB4212BD
:102900004FF0420CBCEB420F01D1422200E0022208
:1029100002F124000A4A32F814300C220BF002F9BA
:10292000601CC4B2042CC9DBBDE8FC819E01002000
:102930009D010020A4010020A8010020981D002076
:102940008401002072B600BFFEE7000010B500222F
:1029500001B909E0012901D10A0205E0022901D1EA
:102960000A0201E04FF440720E4B1B6823F44073DF
:102970000C4C236023461B681343236023461B68CB
:1029800023F0F803236023461B68022444EAC004B2
:102990002343044C236023461B6843F480332360A5
:1029A00010BD0000103C02401C48006800F400709C
:1029B000B0B11A48006820F400701849086000BFE0
:1029C0000846006840F4006008600846006820F48B
:1029D0000060086000BF0846006840F400700860AE
:1029E0000E48006800F48060B0B10C48006820F424
:1029F00080600A49086000BF0846006840F48050C3
:102A000008600846006820F48050086000BF08464F
:102A1000006840F48060086070470000003C02409D
:102A20000A4A126822F44072084B1A601A46126869
:102A300042F004021A601A4612684FF4803343EAE7
:102A400000231A43014B1A6070470000103C0240FB
:102A5000074A126822F44072054B1A601A4612683F
:102A60001A601A46126842F001021A60017070473B
:102A7000103C024010B50D49096821F440710B4C1F
:102A800021602146096841F44071216021460968AE
:102A900041F001012160026000BF00BF00BFBFF331
:102AA0006F8F00BF00BF00BF436010BD103C0240ED
:102AB000084A126822F44072064B1A601A461268DD
:102AC00042F480721A601A46126842F001021A60DB
:102AD00001807047103C0240084A126822F440729C
:102AE000064B1A601A46126842F400721A601A46BF
:102AF000126842F001021A6001607047103C024007
:102B00002348006800F0100040B12248C06940F03E
:102B100010002049C86110201D4908601C48006849
:102B200000F0200040B11B48C06940F0080019497E
:102B3000C8612020164908601548006800F0400070
:102B400040B11448C06940F004001249C8614020F7
:102B50000F4908600E48006800F0800040B10D4841
:102B6000C06940F002000B49C86180200849086034
:102B70000748006800F0020040B10648C06940F014
:102B800020000449C8610220014908607047000024
:102B90000C3C02409C09002070B504460025002032
:102BA0001449C86101F0FCFC054609E0601C38B11D
:102BB00024B101F0F5FC401BA04201D9032070BDF7
:102BC0000D48006800F480300028EFD10A48006802
:102BD00000F0010010B101200749086006480068B4
:102BE00000F0F20018B1FFF78BFF0120E7E70020AB
:102BF000E5E700009C0900200C3C024010B50D499F
:102C0000002003F04BFD0EE0052001F0E7FA094932
:102C1000002003F043FD07480078052801DB012070
:102C200010BD0020FCE7034800780528ECDA0020FE
:102C3000F6E70000FF01002010B50D49012003F068
:102C40002DFD0EE0052001F0C9FA0949012003F02D
:102C500025FD07480078052801DB012010BD002074
:102C6000FCE7034800780528ECDA0020F6E70000CE
:102C7000FF01002010B500240B48408988B100BF37
:102C80000BE0052001F0AAFA601CC4B2052C04DB9D
:102C9000012006498870002410BD03484089C828D7
:102CA000EFDD0020F8E70000981D00209C110020B7
:102CB0002DE9F84F0546884691469A46AB461020C6
:102CC000009000246EE004EB0410394911F8100064
:102CD00099F80010884262D104EB0410344901EBEA
:102CE0004000407899F80110884258D1002641E010
:102CF00000273AE0BAF1000F18D104EB04102C4978
:102D000001EB4000801C805D80213941084030B1DA
:102D1000284801882848008803F0AEFC23E02548B5
:102D200001882648008803F0A7FC1CE004EB04108F
:102D30001F4901EB4000801C805D80213941084023
:102D400028B11C4801881C48008803F095FC681CC9
:102D500085B2A5EB0B00102805D15D4608F10100F6
:102D60001FFA80F803E0781CC7B2082FC2DB00BF4F
:102D7000701CC6B2202EBBDB08F10F0083B205F138
:102D80000F0082B2414628460AF018FD0948008823
:102D900041000B480AF096FF00200649088000BF5A
:102DA000601C84B2009884428DDBBDE8F88F00007F
:102DB000B63101081E0000201C0000201A0000206F
:102DC000540D00207047000010B50446214602480B
:102DD00007F086F910BD0000BC13002038B502468C
:102DE0000020009000BF92F83C00012801D1022091
:102DF00038BD012082F83C0000BF0868092816D9B8
:102E00001068C0680C780A3C04EB44050724AC4009
:102E1000A0431468E0600C780A3C04EB4404886822
:102E2000A0401468E46820431468E06013E0106870
:102E300000690C7804EB44050724AC40A0431468F7
:102E400020610C7804EB44048868A040146824696D
:102E50002043146820614868072817D21068406B27
:102E60000C79641E04EB84051F24AC40A043146855
:102E70006063088880B20C79641E04EB8404A0406F
:102E80001468646B20431468606331E048680D285F
:102E900017D21068006B0C79E41F04EB84051F2423
:102EA000AC40A04314682063088880B20C79E41F0A
:102EB00004EB8404A0401468246B2043146820634E
:102EC00016E01068C06A0C790D3C04EB84051F24E1
:102ED000AC40A0431468E062088880B20C790D3CD5
:102EE00004EB8404A0401468E46A20431468E062A0
:102EF000194B1A4C1068A04206D10868122803D159
:102F0000586840F480005860144C1068A0421CD1EE
:102F10000868102802D00868112816D1586840F4B3
:102F200000005860086810280FD10D4800680D4C4B
:102F3000B0FBF4F000EB80004000009002E000984D
:102F4000401E009000980028F9D100BF002082F8B0
:102F50003C0000BF00BF4BE70023014000200140C0
:102F60001000002040420F0070B5064600240025E6
:102F700005E0174850F825000444681C85B20A2D66
:102F8000F7DB0A20B4FBF0F440F6E440604340F67F
:102F9000FF71B0FBF1F40F480068C0EB4010204413
:102FA0000D49096808440C49086008460068400952
:102FB00008490860084800680968A0EB4110064904
:102FC00008600648006810B104480068804770BD7A
:102FD000540F0020280000202400002020000020A2
:102FE0007047704770B5044600250CB9012070BDCC
:102FF0001549A06A884200D000BF206C30B9204635
:1030000000F024F80020606484F83C00206C00F09C
:10301000100088B9206C20F4885040F00200206431
:103020002046FDF78DFE00206064206C20F0020039
:1030300040F00100206400E0012500BF002084F87A
:103040003C0000BF2846D2E70100000F10B586B053
:103050000446142101A8FDF7DAFB284920688842BC
:103060004AD100BF002000902548006840F48070DD
:10307000234908600846006800F48070009000BF93
:1030800000BF00BF002000901D481438006840F0C9
:1030900004001B49143908600846006800F0040069
:1030A000009000BF00BF0820019003200290002084
:1030B000039001A9134801F075F9134813490860FA
:1030C00000204860002111488160C1604FF4806198
:1030D000016189004161890081618911C16100211B
:1030E0000162416200F0BAFF08B1FFF72BFC00BF9C
:1030F0000648A063846300BF06B010BD00200140F5
:1031000044380240000802401064024038030020A6
:10311000F8B504460D4616460020009000BF94F80E
:103120003C00012801D10220F8BD012084F83C00B8
:1031300000BF2068806800F00100A0B920688068A6
:1031400040F0010021688860554800685549B0FB8F
:10315000F1F000EB4000009002E00098401E00906B
:1031600000980028F9D12068806800F48070B0F5DC
:10317000807F05D12068806820F480702168886095
:103180002068806800F0010000287ED0206C40F2AA
:103190000161884340F4807020642068406800F436
:1031A000806028B1206C20F4005040F480502064EE
:1031B000206C00F48050B0F5805F04D1606C20F08A
:1031C0000600606401E00020606400BF002084F815
:1031D0003C0000BF344F3548A16BC8633448A16B35
:1031E00008643448A16BC8646FF02200216808604D
:1031F0002068406840F080602168486020688068EE
:1032000040F4807021688860226802F14C013346E6
:103210002A46A06B00F098FF786800F01F0018BBEA
:1032200025492068884213D024492068884204D167
:10323000381D006800F01F0050B121492068884205
:103240002BD11948001D006800F01F00102824D25F
:103250002068806800F04050F8B92068806840F02D
:1032600080402168886018E013492068884214D1A2
:103270002068806800F0405078B92068806840F08D
:1032800080402168886008E0FFE7206C40F0100073
:103290002064606C40F001006064002044E700009E
:1032A0001000002040420F0000230140990C00084C
:1032B000310D0008170D00080020014000210140D9
:1032C0000022014010B5024692F82030012B01D0B7
:1032D000022B06D110684069084314686061002021
:1032E00010BD506A40F4802050620120F8E7F0B52C
:1032F00004460D461E4694F8207020688368A8682E
:1033000000B900E000BF012F01D0022F7CD103F0F3
:10331000806030B903F0006018B903F080500028D5
:1033200073D0C3F30161022905D9606A40F400003B
:1033300060620120F0BD012088403060A86860B95B
:10334000B5F800C0E86840EA4C5C206800F5C07041
:1033500000EB0110C0F800C00FE0D5E901C040EA61
:10336000CC00D5F80CC040EA0C00D4F800C00CF535
:10337000C07C0CEB011CCCF80000D5F810C0206814
:1033800000F5C07000EB0110C0F804C0287D0128D2
:103390000ED1206800F5C07000EB0110406840F4C9
:1033A000807C206800F5C07000EB0110C0F804C0FC
:1033B000D079000692F806C040EA0C4092F805C0A9
:1033C00040EA0C2C10794CEA000C206800F5C07023
:1033D00000EB0110C0F80CC0D078000692F802C0D3
:1033E00040EA0C4092F801C040EA0C2092F800C07C
:1033F00040EA0C00D4F800C00CF5C07C0CEB011CBA
:10340000CCF80800206801E016E00FE000F5C0707D
:1034100000EB0110006840F0010C206800F5C0705E
:1034200000EB0110C0F800C0002083E7606A40F4A0
:103430000010606201207DE7606A40F480206062D5
:10344000012077E7F0B504460A46216894F8205039
:10345000012D01D0022D7ED1424901F5007108688D
:1034600040F001000860086820F47C50086008689B
:10347000566A40EA06200860107D00F01F06012011
:1034800000FA06F3C8699843C861A1F50071D069D4
:10349000C8B9D1F80C029843C1F80C02908880B2E8
:1034A000968940EA064601F51070576940F8376082
:1034B000108880B2168940EA064601F510705769F7
:1034C00000EBC7004660D069012819D1D1F80C0281
:1034D0001843C1F80C02908880B2168840EA06466C
:1034E00001F51070576940F83760908980B21689ED
:1034F00040EA064601F51070576900EBC7004660C8
:10350000906928B9D1F804029843C1F8040204E094
:10351000D1F804021843C1F80402106928B9D1F89F
:1035200014029843C1F8140204E0D1F814021843BD
:10353000C1F81402106A012804D1D1F81C02184302
:10354000C1F81C02D1F8000220F00100C1F800020D
:103550000020F0BDFFE7606A40F480206062012037
:10356000F7E7000000640040704770B5044694F827
:103570002050012D01D0022D7DD151B92068C068A5
:1035800000F0030080B9606A40F40010606201201E
:1035900070BD2068006900F0030028B9606A40F43B
:1035A000001060620120F3E7206800F5D87000EB9E
:1035B0000110006800F004009060906840B9206835
:1035C00000F5D87000EB01100068400D106007E0B6
:1035D000206800F5D87000EB01100068C00850604A
:1035E000206800F5D87000EB0110006800F00200C0
:1035F000D060206800F5D87000EB0110406800F042
:103600000F001061206800F5D87000EB01104068D1
:1036100000F47F40000A9061206800F5D87000EB4C
:1036200001104068000C5061206800F5D87000EB74
:10363000011080681870206800F5D87000EB011048
:10364000806800F47F40000A5870206800F5D87048
:1036500000EB0110806800F47F00000C9870206877
:1036600000F5D87000EB01108068000ED87020685B
:1036700000F5D87000E02FE000EB0110C068187171
:10368000206800F5D87000EB0110C06800F47F409E
:10369000000A5871206800F5D87000EB0110C0686E
:1036A00000F47F00000C9871206800F5D87000EBE2
:1036B0000110C068000ED87131B92068C06840F0B0
:1036C00020002668F06005E02068006940F02000D6
:1036D0002668306100205BE7606A40F48020606209
:1036E000012055E72DE9F05F044600252068466972
:1036F0002068D0F80490206887682068D0F80CA073
:103700002068D0F810B02068D0F8188006F00100CA
:10371000002855D007F00100C0B101202168886061
:1037200007F0020018B1204600F005FB0EE007F09C
:10373000040010B145F4006508E007F0080010B17E
:1037400045F4805502E0204600F0F4FA07F480705A
:10375000C8B14FF480702168886007F4007018B118
:10376000204600F0EAFA0EE007F4806010B145F45C
:10377000005508E007F4006010B145F4804502E010
:10378000204600F0D9FA07F48030C8B14FF48030F9
:103790002168886007F4003018B1204600F0CFFAA5
:1037A0000EE007F4802010B145F4004508E007F46E
:1037B000002010B145F4803502E0204600F0BEFA4A
:1037C00006F0080038B10AF0100020B145F4007589
:1037D00010202168C86006F0040040B10AF008001B
:1037E00028B108202168C860204600F020FA06F0C1
:1037F000020038B12068C06800F0030010B1204614
:1038000000F016FA06F0400038B10BF0100020B1BD
:1038100045F4806510202168086106F0200040B161
:103820000BF0080028B1082021680861204600F04C
:103830004FFA06F0100038B12068006900F003006C
:1038400010B1204600F045FA06F4003040B109F00E
:10385000100028B1102021684860204600F03AFA94
:1038600006F4803040B109F0080028B10820216832
:103870004860204600F064FA06F4004088B309F07E
:10388000040078B306F4807020B108F0010008B19C
:1038900045F0010506F4007020B108F0020008B1FF
:1038A00045F0020506F4806020B108F0040008B17C
:1038B00045F0040506F40060A0B108F0700088B17E
:1038C00008F07000402817D006DC10280BD0202804
:1038D0000CD0302819D10CE0502810D0602814D119
:1038E00010E01DE019E045F008050FE045F0100577
:1038F0000CE045F0200509E045F0400506E045F004
:10390000800503E045F4807500E000BF00BF20683B
:10391000806920F070002168886104202168486077
:103920002DB1606A284360622046FFF71DFEBDE8A6
:10393000F09F70B504460CB9012070BD94F82000CA
:1039400010B9204600F0B0F82068006840F001008F
:103950002168086000F024FE05460DE000F020FE1E
:10396000401B0A2808D9606A40F4003060620520D4
:1039700084F820000120E0E72068406800F00100A2
:103980000028EBD02068006820F002002168086061
:1039900000F006FE05460DE000F002FE401B0A287E
:1039A00008D9606A40F400306062052084F8200085
:1039B0000120C2E72068406800F002000028EBD137
:1039C000207E012806D12068006840F08000216830
:1039D000086005E02068006820F080002168086029
:1039E000607E012806D12068006840F04000216810
:1039F000086005E02068006820F040002168086049
:103A0000A07E012806D12068006840F020002168CF
:103A1000086005E02068006820F020002168086048
:103A2000E07E012806D12068006820F0100021689F
:103A3000086005E02068006840F010002168086018
:103A4000207F012806D12068006840F00800216826
:103A5000086005E02068006820F008002168086020
:103A6000607F012806D12068006840F004002168CA
:103A7000086005E02068006820F004002168086004
:103A8000D4E9020108432169084361690843616878
:103A9000491E08432168C86100206062012084F843
:103AA0002000002049E7000010B586B0044614212C
:103AB00001A8FCF7ACFE4F492068884241D14E482E
:103AC0000068401C4C4908600846006801280FD176
:103AD00000BF002000904948006840F0007047494E
:103AE00008600846006800F00070009000BF00BF4A
:103AF00000BF0020009041481038006840F00800E6
:103B00003E49103908600846006800F0080000903F
:103B100000BF00BF0320019002200290002003900C
:103B2000032004900920059001A9354800F03AFCD3
:103B300000221146142000F0A5FD142000F092FD93
:103B400055E030492068884251D100BF00200090E4
:103B50002A48006840F080602849086008460068EC
:103B600000F08060009000BF00BF23480068401C48
:103B7000214908600846006801280FD100BF0020D5
:103B800000901E48006840F000701C49086008461C
:103B9000006800F00070009000BF00BF00BF002070
:103BA000009016481038006840F0020013491039A0
:103BB00008600846006800F00200009000BF00BFE7
:103BC0004FF4405001900220029000200390032007
:103BD00004900920059001A90B4800F0E3FB0022A6
:103BE0001146402000F04EFD402000F03BFD06B0A5
:103BF00010BD00000064004000000020403802407A
:103C0000000C024000680040000402400146002011
:103C100091F82020012A01D0022A02D100234B6210
:103C200004E04B6A43F480234B62012070477047E5
:103C300030B58FB0054606AB08AA00212846FFF72D
:103C400094FC00283DD120492868884203D10020F7
:103C50008DF8080002E001208DF808000A98C0B233
:103C60008DF809000B98C0B28DF80A000C98C0B20C
:103C70008DF80B009DF80900042802D109980590E1
:103C800001E00898059000240DE09DF80B00A0428B
:103C900004DD06A8015D03A8015502E0002103A888
:103CA0000155601CC4B2082CEFDB05980090074852
:103CB00002A90EC9FDF70DFE044614B902A806F0CC
:103CC000D3F80FB030BD000000640040000A0020AF
:103CD00070477047704770B5044694F8200001287B
:103CE00022D1022084F820002068006820F0010022
:103CF0002168086000F054FC05460DE000F050FC1F
:103D0000401B0A2808D9606A40F400306062052030
:103D100084F82000012070BD2068406800F0010098
:103D20000028EBD16062F6E7606A40F40020606230
:103D30000120F0E770477047704770477047704741
:103D4000704770B50446A56D00F02AFC064694F84D
:103D50003500022808D08020606500BF002084F86C
:103D6000340000BF012070BD2068006820F01600FC
:103D7000216808602068406920F08000216848615F
:103D8000206C08B9A06C28B12068006820F00800F9
:103D9000216808602068006820F001002168086040
:103DA00010E000F0FDFB801B05280BD9202060658A
:103DB000032084F8350000BF002084F8340000BFE1
:103DC0000320D0E72068006800F001000028E8D157
:103DD00094F85C103F208840A860012084F83500EA
:103DE00000BF002084F8340000BF00BFBBE70146DD
:103DF00091F83500022803D08020486501207047E3
:103E0000052081F835000868006820F001000A6884
:103E100010600020F3E70146486D7047F8B504468E
:103E2000002000908C4800684FF41651B0FBF1F769
:103E3000A56D2E6894F85C1008208840304098B139
:103E40002068006800F0040070B12068006820F06D
:103E500004002168086094F85C1008208840A8607D
:103E6000606D40F00100606594F85C1001208840AE
:103E7000304068B12068406900F0800040B194F89B
:103E80005C1001208840A860606D40F00200606511
:103E900094F85C1004208840304068B120680068C5
:103EA00000F0020040B194F85C1004208840A86043
:103EB000606D40F00400606594F85C10102088404C
:103EC000304078B32068006800F0080050B394F8E0
:103ED0005C1010208840A8602068006800F48020F2
:103EE00080B12068006800F4002028B9206CC8B1B7
:103EF0002046216C884715E0A06C98B12046A16C43
:103F000088470FE02068006800F4807028B92068B6
:103F1000006820F0080021680860206C10B120467D
:103F2000216C884794F85C1020208840304000289D
:103F300065D02068006800F0100000285FD094F879
:103F40005C1020208840A86094F83500052828D10E
:103F50002068006820F01600216808602068406929
:103F600020F0800021684861206C08B9A06C28B15D
:103F70002068006820F008002168086094F85C1050
:103F80003F208840A860012084F8350000BF002051
:103F900084F8340000BF206D10B12046216D8847A1
:103FA000F8BD2068006800F4802080B120680068B7
:103FB00000F4002028B9606C10B12046616C88477D
:103FC0001DE0E06BD8B12046E16B884717E0206820
:103FD000006800F4807068B92068006820F0100064
:103FE00021680860012084F8350000BF002084F8B3
:103FF000340000BFE06B10B12046E16B8847606D74
:1040000038B3606D00F00100F0B1052084F8350090
:104010002068006820F001002168086000BF009857
:10402000401C0090B84200D905E02068006800F00C
:1040300001000028F3D100BF012084F8350000BF43
:10404000002084F8340000BFE06C10B12046E16C21
:10405000884700BFA4E70000100000202DE9F041D0
:104060000446002500F09CFA074614B90120BDE87B
:10407000F081606A00B100BF022084F8350000BF03
:10408000002084F8340000BF2068006820F00100A0
:10409000216808600AE000F083FAC01B052805D9F2
:1040A00020206065032084F83500E0E72068006880
:1040B00000F001000028EED1206805682148054085
:1040C000D4E901010843E1680843216908436169B3
:1040D0000843A1690843E1690843216A084305438D
:1040E000606A042803D1D4E90B0108430543206822
:1040F00005602068456925F00705606A0543606A28
:1041000004280DD1A06A0543E06A48B12046FDF7B6
:10411000FFFD28B140206065012084F83500A6E746
:10412000206845612046FDF7D9FD064694F85C10ED
:104130003F208840B06000206065012084F8350091
:10414000002094E73F8010F02DE9F04704460D462B
:1041500016461F464FF00008D4F8589000BF94F858
:104160003400012802D10220BDE8F087012084F844
:10417000340000BF94F83500012825D1022084F8CE
:104180003500002060653B46324629462046FDF753
:1041900014FE94F85C103F208840C9F8080020689D
:1041A000006840F0160021680860206C28B1206883
:1041B000006840F00800216808602068006840F04E
:1041C00001002168086006E000BF002084F8340088
:1041D00000BF4FF002084046C6E7000031B5009826
:1041E000401C20B10B4909780098084400900DF05C
:1041F000C7F918B100980DF09BF909E0002404E01C
:104200004FF47A7001F0E8FF641C00988442F7D301
:1042100038BD00000C0000202DE9F04104460E4698
:104220000127002500BF2548007E012802D1022079
:10423000BDE8F08101202149087600BF4CF25030E2
:10424000FEF7AAFC0746002F31D1401E30602068DF
:1042500001280FD1207C6168FEF7E2FB4CF2503060
:10426000FEF79AFC07461648006820F0040014493F
:1042700008601AE0A56812E0217C2846FEF766FB7C
:104280004CF25030FEF788FC07460D48006820F0DD
:10429000FA000B4908600FB1356005E06D1CD4E9E8
:1042A00002100844A842E7D800BFFEF77DFB00BF1C
:1042B00000200249087600BF3846B9E79C09002073
:1042C000103C02400348006840F00040014908608B
:1042D00000207047103C02402DE9F04106460F4691
:1042E00014461D464FF0010800BF1F48007E0128FC
:1042F00002D10220BDE8F08101201B49087600BFF1
:104300004CF25030FEF748FC8046B8F1000F23D144
:1043100026B9E1B23846FEF79BFB12E0012E04D12C
:10432000A1B23846FEF7C4FB0BE0022E04D12146B1
:104330003846FEF7D1FB04E022462B463846FEF70E
:1043400099FB4CF25030FEF727FC80460748006886
:1043500020F001000549086000BF002002490876EE
:1043600000BF4046C6E700009C090020103C024008
:1043700000200949096801F0004159B10749064A7E
:104380000C3A1160064911600349096801F00041C7
:1043900001B1012070470000103C02402301674535
:1043A000AB89EFCDF8B502460B460025002400206E
:1043B0000021D5E0012606FA01F51E6806EA05048B
:1043C000AC4274D11E7906F00306012E04D01E798A
:1043D00006F00306022E13D190684F000326BE405C
:1043E000B0434F00DE68BE40304390605068012605
:1043F0008E40B0431E79C6F300168E4030435060A5
:104400001E7906F00306032E09D0D0684F0003265C
:10441000BE40B0434F009E68BE403043D0601E791E
:1044200006F00306022E13D1CF0802F1200656F83B
:1044300027004E07F70E0F26BE40B0434F07FF0E72
:104440001E69BE403043CF0802F1200646F827001F
:1044500010684F000326BE40B0431E7906F00306E5
:104460004F00BE40304310605E6806F44036002EB8
:1044700075D000BF002600963B4E366846F4804655
:10448000394F3E603E46366806F48046009600BFCF
:1044900000BF364E8F0856F827008E07370F0F26BD
:1044A000BE40B043324EB24202D1002624E056E074
:1044B000304EB24201D101261EE02F4EB24201D150
:1044C000022619E02D4EB24201D1032614E02C4EF3
:1044D000B24201D104260FE02A4EB24201D1052694
:1044E0000AE0294EB24201D1062605E0274EB2422B
:1044F00001D1072600E008268F073F0FBE4030435A
:104500001A4E8F0846F82700214E3068A0435E6897
:1045100006F4803606B120431D4E3060361D3068EB
:10452000A0435E6806F4003606B12043184E361DDF
:104530003060361D3068A0435E6806F4801606B110
:104540002043134E08363060361D3068A0435E6845
:1045500006F4001606B120430D4E0C363060491C9F
:104560001029FFF427AFF8BD443802400838014055
:10457000000002400004024000080240000C02401B
:10458000001002400014024000180240001C0240CB
:10459000003C01400AB1816101E00B048361704776
:1045A00000B54FF0E020006900F4803008B100F061
:1045B00005F80148006800BD0400002003480068B9
:1045C0000349098808440149086070470400002035
:1045D0001800002010B50D48006840F400700B4929
:1045E00008600846006840F480600860084600687B
:1045F00040F480700860032000F082F8002000F092
:1046000007F800F00BF8002010BD0000003C02404D
:1046100010B504460CF0B6F9002010BD08B500BF77
:10462000002000900E48006840F480400C4908606B
:104630000846006800F48040009000BF00BF00BF43
:1046400000200090081F006840F08050091F08609B
:104650000846006800F08050009000BF00BF08BD11
:104660004438024001460846002809DB00F01F03D9
:1046700001229A4043099B0003F1E023C3F8002183
:1046800000BF70472DE9F05F80460D4616460027B3
:1046900007F09AFC074639462A46334601F00700E0
:1046A000C0F1070ABAF1040F02D94FF0040A01E081
:1046B000C0F1070AD14600F1040ABAF1070F02D28D
:1046C0004FF0000A01E0A0F1030AD4464FF0010ABE
:1046D0000AFA09FAAAF1010A0AEA020A0AFA0CFA23
:1046E0004FF0010B0BFA0CFBABF1010B0BEA030BC8
:1046F0004AEA0B042146404607F06EFCBDE8F09FF5
:1047000000BF00F00702064B19684FF6FF0319407F
:10471000044B0B4343EA0221014B196000BF704771
:104720000CED00E00000FA0570B504460D460CB92A
:10473000012070BD5848006800F00700A84209D267
:1047400055490D700846006800F00700A84201D0E6
:104750000120EEE7207800F0020002281DD1207829
:1047600000F00400042805D14C48006840F4E050F3
:104770004A490860207800F00800082805D1474819
:10478000006840F46040454908604448006820F0F3
:10479000F000A168084341490860207800F001005A
:1047A000A8B36068012807D13C4808380068C0F306
:1047B0004040B8B90120BCE76068022802D06068B8
:1047C000032807D1354808380068C0F3406048B96D
:1047D0000120AEE7314808380068C0F3400008B94E
:1047E0000120A6E72D48006820F003006168084317
:1047F0002A490860FFF7D4FE064609E0FFF7D0FE1D
:10480000801B41F28831884202D9032091E707E0FA
:104810002248006800F00C006168B0EB810FEDD118
:104820001D48006800F00700A84209D91A490D7018
:104830000846006800F00700A84201D0012078E790
:10484000207800F00400042807D11448006820F400
:10485000E050E168084311490860207800F0080042
:10486000082808D10D48006820F46040216940EA1A
:10487000C1000A49086000F03FF808490968C1F31F
:104880000311074A515CC8400649086006480068A1
:10489000FFF7BEFE00204CE7003C02400838024013
:1048A00012300108100000200800002001480068B4
:1048B000704700001000002000B5FFF7F7FF044923
:1048C0000968C1F38221034A515CC84000BD000061
:1048D000083802402230010800B5FFF7E7FF04491D
:1048E0000968C1F34231034A515CC84000BD000071
:1048F00008380240223001082DE9F0470024002545
:104900000026A1462548006800F00C0020B10428CC
:1049100005D008283AD105E0DFF8849039E0DFF8C7
:10492000849036E01D48001F006800F03F041B48DB
:10493000001F006800F4800078B11A481749091F69
:104940000968C1F38811A0FB0170014622460023CB
:104950003846FBF7A5FD05460EE011480F49091F33
:104960000968C1F38811A0FB0170014622460023AB
:104970003846FBF795FD05460848001F0068C0F360
:104980000140401C4600B5FBF6F902E0DFF810904C
:1049900000BF00BF4846BDE8F0870000083802406D
:1049A0000024F40000127A00F8B504460CB9012086
:1049B000F8BD207800F00100002874D0F9480068A4
:1049C00000F00C0004280DD0F648006800F00C0040
:1049D000082813D1F348001F006800F48000B0F5E8
:1049E000800F0BD1EF4808380068C0F34040002822
:1049F00059D06068002856D10120D9E700BF60680F
:104A0000B0F5803F08D1E7480838006840F48030AE
:104A1000E449083908601EE06068B0F5A02F0DD1A8
:104A2000E0480838006840F48020DE490839086012
:104A30000846006840F4803008600CE0D948083827
:104A4000006820F48030D7490839086008460068BB
:104A500020F48020086000BF606890B1FFF7A0FDDF
:104A6000054606E0FFF79CFD401B642801D90320A2
:104A70009EE7CC4808380068C0F340400028F1D0D9
:104A800011E0FFF78DFD054606E0FFF789FD401BAD
:104A9000642801D903208BE7C24808380068C0F3B6
:104AA00040400028F1D1207800F0020002285FD1B8
:104AB000BC48006800F00C0058B1BA48006800F02B
:104AC0000C0008281CD1B748001F006800F48000C3
:104AD000B0B9B44808380068C0F3400020B1E068BD
:104AE000012801D0012063E7AE480838006820F0B3
:104AF000F800216940EAC100AA490839086037E096
:104B0000E06800B30120A8490860FFF749FD0546A9
:104B100006E0FFF745FD401B022801D9032047E7C7
:104B2000A04808380068C0F340000028F1D09D4834
:104B30000838006820F0F800216940EAC10099496E
:104B40000839086014E0002097490860FFF728FD45
:104B5000054606E0FFF724FD401B022801D903208B
:104B600026E7904808380068C0F340000028F1D1DB
:104B7000207800F0080008282CD16069A8B1012035
:104B80008A490860FFF70CFD054606E0FFF708FDBF
:104B9000401B022801D903200AE782486C300068D4
:104BA000C0F340000028F1D014E000207F490860E5
:104BB000FFF7F6FC054606E0FFF7F2FC401B022873
:104BC00001D90320F4E677486C300068C0F3400058
:104BD0000028F1D1207800F00400042870D10027CB
:104BE00070483830006800F0805090B900BF002055
:104BF00000906C483830006840F080506949383186
:104C000008600846006800F08050009000BF00BFB8
:104C100001276748006800F48070B0B964480068F4
:104C200040F4807062490860FFF7BAFC054606E070
:104C3000FFF7B6FC401B022801D90320B8E65C4808
:104C4000006800F480700028F2D000BFA06801283E
:104C500008D154486830006840F00100514968317B
:104C600008601DE0A06805280DD14E486830006836
:104C700040F004004B49683108600846006840F085
:104C8000010008600CE047486830006820F001002F
:104C90004449683108600846006820F00400086054
:104CA00000BFA068A8B1FFF77BFC054609E0FFF74D
:104CB00077FC401B41F28831884202D9032077E615
:104CC00026E0384868300068C0F340000028EED085
:104CD00013E0FFF765FC054608E0FFF761FC401BA9
:104CE00041F28831884201D9032061E62D486830BD
:104CF0000068C0F340000028EFD1012F07D12948F8
:104D00003830006820F0805026493831086000BFF4
:104D1000A069002845D02348006800F00C0008284E
:104D20005DD0A069022845D100201F490866FFF721
:104D300037FC054606E0FFF733FC401B022801D98B
:104D4000032035E6174808380068C0F340600028A3
:104D5000F1D1D4E907010843616A40EA81110122D7
:104D6000A06AC2EB500041EA00412C20005D41EAFC
:104D700000600C49091F086001200B490866FFF715
:104D80000FFC054606E0FFF70BFC401B022801D98B
:104D900003200DE6034808380068C0F3406000288F
:104DA000F1D049E00838024000004742800E4742F7
:104DB00000700040002021490866FFF7F1FB05461E
:104DC00006E0FFF7EDFB401B022801D90320EFE5C9
:104DD0001B480068C0F340600028F2D12CE0A069B5
:104DE000012800D1E4E51648001D0668A0690128E5
:104DF00020D006F48001E06981421BD106F03F011A
:104E0000206A814216D147F6C0703040616AB0EB2B
:104E1000811F0FD106F440310122A06AC2EB50007D
:104E2000B1EB004F06D106F070612C20005DB1EBB4
:104E3000006F01D00120BBE50020B9E5000047422A
:104E40000038024010B504460CB9012010BD606A5C
:104E500038B96068B0F5827F00D105E00021E161DA
:104E600002E00021216161610021A16294F85100FA
:104E700028B9002084F85000204600F047F80220AE
:104E800084F851002068006820F040002168086024
:104E9000A08800F48270218901F404410843A189AB
:104EA00001F400610843217C01F002010843217DE7
:104EB00001F001010843218B01F400710843217FB7
:104EC00001F0380108432021095D01F08001084309
:104ED000218D01F400510843216808600421A06974
:104EE00001EA104094F8241001F0100108432168F1
:104EF00048602068C06920F400602168C861002013
:104F00006065012084F8510000209FE710B586B04D
:104F10000446142101A8FBF77AFC1B49206888424B
:104F20002FD100BF002000901848006840F4805046
:104F3000164908600846006800F48050009000BFE1
:104F400000BF00BF0020009010481438006840F0F7
:104F500001000E49143908600846006800F001009D
:104F6000009000BF00BFE0200190022002900020CE
:104F70000390032004900520059001A90448FFF741
:104F800011FA06B010BD0000003001404438024064
:104F9000000002402DE9F84F0446884616461D469B
:104FA0004FF0000A00BF94F85000012802D10220FF
:104FB000BDE8F88F012084F8500000BFFFF7F0FA39
:104FC0000746B14694F85100012802D04FF0020A7A
:104FD000ADE0B8F1000F00D016B94FF0010AA6E01D
:104FE000032084F8510000206065C4F83080A68654
:104FF000E686A063A087E08760642064A068B0F5BF
:10500000004F0BD12068006820F040002168086044
:105010002068006840F480402168086020680068CB
:1050200000F04000402805D02068006840F04000B3
:1050300021680860E068B0F5006F2FD1606810B19A
:10504000B9F1010F09D1206B00882168C860206B7D
:10505000801C2063E08E401EE0861BE02068806894
:1050600000F0020002280AD1206B00882168C86085
:10507000206B801C2063E08E401EE0860AE0FFF774
:105080008FFAC01BA84201D3681C00B915B94FF0B4
:10509000030A4CE0E08E0028E0D12EE0606810B1F9
:1050A000B9F1010F09D1206B007821680873206BDA
:1050B000401C2063E08E401EE0861BE02068806874
:1050C00000F0020002280AD1206B007821680873E2
:1050D000206B401C2063E08E401EE0860AE0FFF754
:1050E0005FFAC01BA84201D3681C00B915B94FF084
:1050F000030A1CE0E08E0028E0D13A46294620460B
:1051000005F018FB08B120206065A06850B900BF09
:10511000002000902068C06800902068806800909F
:1051200000BF00BF606D08B14FF0010A00BF012051
:1051300084F8510000BF002084F8500000BF5046A2
:1051400036E770B504462546681EB0F1807F01D36E
:1051500001200FE0681E4FF0E02148610F214FF061
:10516000FF3006F039FF00204FF0E0218861072072
:105170000861002070BD000010B586B004461421FF
:1051800001A8FBF744FB1249206888421DD100BFEB
:10519000002000900F48006840F002000D490860B0
:1051A0000846006800F00200009000BF00BF4FF406
:1051B000804001900220029000200390049009207A
:1051C000059001A90448FFF7EDF806B010BD0000F6
:1051D0000018004030380240000402402DE9F04140
:1051E00004460D461646002700BF94F83C000128EF
:1051F00002D10220BDE8F081012084F83C0000BF0C
:1052000036B1042E1BD0082E31D00C2E5ED145E0D5
:105210002946206805F07AFD2068806940F0080082
:10522000216888612068806920F004002168886115
:1052300020688069296908432168886148E0294617
:10524000206805F09BFD2068806940F400602168BB
:1052500088612068806920F4806021688861206806
:105260008069296940EA01202168886130E0294687
:10527000206805F0C1FD2068C06940F00800216881
:10528000C8612068C06920F004002168C8612068F6
:10529000C069296908432168C86119E02946206866
:1052A00005F0E6FD2068C06940F400602168C8612F
:1052B0002068C06920F480602168C8612068C069E6
:1052C000296940EA01202168C86101E0012700BF87
:1052D00000BF00BF002084F83C0000BF384689E7CB
:1052E00010B504460CB9012010BD94F83D0028B952
:1052F000002084F83C00204600F026F8022084F8C4
:105300003D00211D206805F083FC012084F8460043
:1053100000BF84F83E0001213F2001554020015587
:105320004120015500BF00BF012084F84200432006
:105330000155442001554520015500BF012084F846
:105340003D000020D0E7000008B50A4A01689142FC
:105350000FD100BF002100910749096841F04001C9
:10536000054A11601146096801F04001009100BF33
:1053700000BF08BD001800404038024070B5044628
:105380000D4615B994F83E000BE0042D02D13F20E4
:10539000005D06E0082D02D14020005D01E04120C3
:1053A000005D012801D0012070BD1DB9022084F8E4
:1053B0003E000EE0042D03D102213F20015508E0FC
:1053C000082D03D102214020015502E00221412095
:1053D000015501222946206805F086FC23492068F2
:1053E000884203D022492068884201D1012000E090
:1053F000002028B12068406C40F4004021684864D7
:105400001A49206888421BD02068B0F1804F17D01D
:1054100018492068884213D01749206888420FD065
:105420001649206888420BD011492068884207D06D
:1054300013492068884203D01249206888420CD161
:105440002068806800F00706062E0CD020680068EF
:1054500040F001002168086005E02068006840F025
:1054600001002168086000209EE700000000014064
:10547000000401400004004000080040000C00400F
:10548000004001400018004030B504460D4600229F
:105490002946206805F028FC23492068884203D06B
:1054A00022492068884201D1012000E0002090B10B
:1054B00000BF2068006A41F21111084050B920680D
:1054C000006A8910084028B92068406C20F4004028
:1054D0002168486400BF00BF2068006A41F21111D2
:1054E000084050B92068006A8910084028B920682F
:1054F000006820F001002168086000BF1DB901208C
:1055000084F83E000EE0042D03D101213F20015517
:1055100008E0082D03D101214020015502E00121BE
:1055200041200155002030BD000001400004014031
:10553000704710B5044600BF00BF21680C3151E828
:10554000001F21F4907021680C3141E80002002A0C
:10555000F3D100BF00BF00BF2168143151E8001F24
:1055600021F001002168143141E80002002AF3D142
:1055700000BF206B01280ED100BF00BF21680C3195
:1055800051E8001F21F0100021680C3141E80002B1
:10559000002AF3D100BF2068406900F04000402895
:1055A00020D100BF00BF2168143151E8001F21F055
:1055B00040002168143141E80002002AF3D100BF05
:1055C000A06B78B10020A16B0865A06BFEF7B9FB5A
:1055D00040B1A06BFEF71FFC202803D110202064EF
:1055E000032010BD0020E085202084F83E0000202C
:1055F000206300BFF5E770472DE9F84F04462068A7
:1056000005682068C668206847694FF00009CA46E7
:1056100005F00F09B9F1000F0AD105F0200038B1EB
:1056200006F0200020B1204606F016F8BDE8F88FFD
:10563000B9F1000F7CD007F0010018B906F49070A2
:10564000002875D005F0010030B106F4807018B163
:10565000206C40F00100206405F0040030B107F038
:10566000010018B1206C40F00200206405F0020037
:1056700030B107F0010018B1206C40F00400206444
:1056800005F0080048B106F0200010B907F001004D
:1056900018B1206C40F008002064206C002846D02F
:1056A00005F0200028B106F0200010B1204605F0DA
:1056B000D3FF20684069C0F3801A206C00F0080016
:1056C00010B9BAF1000F2DD0204605F06CFF20680C
:1056D000406900F04000402820D100BF00BF216891
:1056E000143151E8001F21F040002168143141E8D5
:1056F0000002002AF3D100BFA06B50B17548A16B26
:105700000865A06BFEF773FB88B1A06B016D88473D
:105710000DE02046FFF76FFF09E009E02046FFF7A4
:105720006AFF04E02046FFF766FF002020647DE763
:10573000206B012876D105F01000002872D006F009
:1057400010000028FAD000BF0020009020680068F8
:10575000009020684068009000BF00BF206840694A
:1057600000F0400040285ED1A06B006840681FFA3E
:1057700080F8B8F1000F54D0A08D404551DDA4F859
:105780002E80A06BC069B0F5807F43D000BF00BF02
:1057900021680C3151E8001F21F4807021680C3120
:1057A00041E80002002AF3D100BF00BF00BF21681A
:1057B000143151E8001F21F001002168143141E843
:1057C0000002002AF3D100BF00BF00BF21681431DE
:1057D00051E8001F21F040002168143141E8000227
:1057E000002AF3D100BF202084F83E00002020636F
:1057F00000BF00BF21680C3151E8001F21F01000EC
:1058000021680C3141E80002002AF3D100BFA06BEF
:10581000FEF797FAA08DE28D801A81B22046FFF73D
:1058200087FE03E740E0A08DE18D401A1FFA80F863
:10583000E08DC0B3B8F1000F35D000BF00BF2168C4
:105840000C3151E8001F21F4907021680C3141E8BF
:105850000002002AF3D100BF00BF00BF216814314D
:1058600051E8001F21F001002168143141E80002D5
:10587000002AF3D100BF202084F83E0000202063DE
:1058800000BF00BF21680C3151E8001F21F010005B
:1058900021680C3141E80002002AF3D100BF4146E3
:1058A0002046FFF745FEC1E605F0800030B106F066
:1058B000800018B1204606F0C7F8B7E605F04000B2
:1058C00030B106F0400018B1204605F0A2FEADE66A
:1058D00000BFABE60DB4000810B504460CB90120BA
:1058E00010BDA06900B100E000BF94F83D0028B9E8
:1058F000002084F83C00204600F028F8242084F89A
:105900003D002068C06820F400502168C86020462F
:1059100005F01EFF2068006920F4904021680861AE
:105920002068406920F02A00216848612068C0682A
:1059300040F400502168C86000202064202084F8D2
:105940003D0084F83E000020CAE7000010B586B094
:105950000446142101A8FAF75AFFFD49206888423D
:1059600078D100BF00200090FA48006840F4002081
:10597000F84908600846006800F40020009000BF65
:1059800000BF00BF00200090F2481038006840F0CF
:105990000400F049103908600846006800F004006F
:1059A000009000BF00BF4FF44060019002200290C1
:1059B00000200390032004900820059001A9E648E8
:1059C000FEF7F0FCE548E649086040054860002124
:1059D000E3488160C1604FF4806101610021416151
:1059E00081614FF48071C161002101624162FEF763
:1059F00035FB08B1FCF7A6FF00BFD948A06384635C
:105A000000BFD6483030D74908604FF0006048608A
:105A10004021D44881600021C1604FF48061016160
:105A2000002141618161C16101624162FEF716FBA3
:105A300008B1FCF787FF00BFCA486063846300BFFA
:105A4000002211463420FEF71DFE3420FEF70AFE28
:105A50003AE2FFE7C449206888427DD100BF0020B8
:105A60000090BC48006840F48010BA4908600846BD
:105A7000006800F48010009000BF00BF00BF00204D
:105A80000090B4481038006840F00400B149103963
:105A900008600846006800F00400009000BF00BFE6
:105AA00000BF002000900846006840F00800086031
:105AB0000846006800F00800009000BF00BF88148E
:105AC00001900220029000200390032004900820FF
:105AD000059001A9A048FEF765FC04200190022072
